{
  "contractName": "CYOC_c",
  "abi": [
    {
      "inputs": [
        {
          "internalType": "address payable",
          "name": "_addr",
          "type": "address"
        }
      ],
      "stateMutability": "nonpayable",
      "type": "constructor"
    },
    {
      "anonymous": false,
      "inputs": [
        {
          "indexed": true,
          "internalType": "address",
          "name": "owner",
          "type": "address"
        },
        {
          "indexed": true,
          "internalType": "address",
          "name": "approved",
          "type": "address"
        },
        {
          "indexed": true,
          "internalType": "uint256",
          "name": "tokenId",
          "type": "uint256"
        }
      ],
      "name": "Approval",
      "type": "event"
    },
    {
      "anonymous": false,
      "inputs": [
        {
          "indexed": true,
          "internalType": "address",
          "name": "owner",
          "type": "address"
        },
        {
          "indexed": true,
          "internalType": "address",
          "name": "operator",
          "type": "address"
        },
        {
          "indexed": false,
          "internalType": "bool",
          "name": "approved",
          "type": "bool"
        }
      ],
      "name": "ApprovalForAll",
      "type": "event"
    },
    {
      "anonymous": false,
      "inputs": [
        {
          "indexed": true,
          "internalType": "address",
          "name": "previousOwner",
          "type": "address"
        },
        {
          "indexed": true,
          "internalType": "address",
          "name": "newOwner",
          "type": "address"
        }
      ],
      "name": "OwnershipTransferred",
      "type": "event"
    },
    {
      "anonymous": false,
      "inputs": [
        {
          "indexed": true,
          "internalType": "address",
          "name": "from",
          "type": "address"
        },
        {
          "indexed": true,
          "internalType": "address",
          "name": "to",
          "type": "address"
        },
        {
          "indexed": true,
          "internalType": "uint256",
          "name": "tokenId",
          "type": "uint256"
        }
      ],
      "name": "Transfer",
      "type": "event"
    },
    {
      "inputs": [
        {
          "internalType": "address",
          "name": "",
          "type": "address"
        },
        {
          "internalType": "uint256",
          "name": "",
          "type": "uint256"
        }
      ],
      "name": "_addressProposedCitations",
      "outputs": [
        {
          "internalType": "enum CYOC.Type",
          "name": "_type",
          "type": "uint8"
        },
        {
          "internalType": "string",
          "name": "word1",
          "type": "string"
        },
        {
          "internalType": "string",
          "name": "word2",
          "type": "string"
        }
      ],
      "stateMutability": "view",
      "type": "function",
      "constant": true
    },
    {
      "inputs": [
        {
          "internalType": "uint256",
          "name": "",
          "type": "uint256"
        }
      ],
      "name": "_citations",
      "outputs": [
        {
          "internalType": "enum CYOC.Type",
          "name": "_type",
          "type": "uint8"
        },
        {
          "internalType": "string",
          "name": "word1",
          "type": "string"
        },
        {
          "internalType": "string",
          "name": "word2",
          "type": "string"
        }
      ],
      "stateMutability": "view",
      "type": "function",
      "constant": true
    },
    {
      "inputs": [
        {
          "internalType": "address",
          "name": "to",
          "type": "address"
        },
        {
          "internalType": "uint256",
          "name": "tokenId",
          "type": "uint256"
        }
      ],
      "name": "approve",
      "outputs": [],
      "stateMutability": "nonpayable",
      "type": "function"
    },
    {
      "inputs": [
        {
          "internalType": "address",
          "name": "owner",
          "type": "address"
        }
      ],
      "name": "balanceOf",
      "outputs": [
        {
          "internalType": "uint256",
          "name": "",
          "type": "uint256"
        }
      ],
      "stateMutability": "view",
      "type": "function",
      "constant": true
    },
    {
      "inputs": [
        {
          "internalType": "uint256",
          "name": "tokenId",
          "type": "uint256"
        }
      ],
      "name": "getApproved",
      "outputs": [
        {
          "internalType": "address",
          "name": "",
          "type": "address"
        }
      ],
      "stateMutability": "view",
      "type": "function",
      "constant": true
    },
    {
      "inputs": [
        {
          "internalType": "address",
          "name": "owner",
          "type": "address"
        },
        {
          "internalType": "address",
          "name": "operator",
          "type": "address"
        }
      ],
      "name": "isApprovedForAll",
      "outputs": [
        {
          "internalType": "bool",
          "name": "",
          "type": "bool"
        }
      ],
      "stateMutability": "view",
      "type": "function",
      "constant": true
    },
    {
      "inputs": [],
      "name": "name",
      "outputs": [
        {
          "internalType": "string",
          "name": "",
          "type": "string"
        }
      ],
      "stateMutability": "view",
      "type": "function",
      "constant": true
    },
    {
      "inputs": [],
      "name": "owner",
      "outputs": [
        {
          "internalType": "address",
          "name": "",
          "type": "address"
        }
      ],
      "stateMutability": "view",
      "type": "function",
      "constant": true
    },
    {
      "inputs": [
        {
          "internalType": "uint256",
          "name": "tokenId",
          "type": "uint256"
        }
      ],
      "name": "ownerOf",
      "outputs": [
        {
          "internalType": "address",
          "name": "",
          "type": "address"
        }
      ],
      "stateMutability": "view",
      "type": "function",
      "constant": true
    },
    {
      "inputs": [],
      "name": "renounceOwnership",
      "outputs": [],
      "stateMutability": "nonpayable",
      "type": "function"
    },
    {
      "inputs": [
        {
          "internalType": "address",
          "name": "from",
          "type": "address"
        },
        {
          "internalType": "address",
          "name": "to",
          "type": "address"
        },
        {
          "internalType": "uint256",
          "name": "tokenId",
          "type": "uint256"
        }
      ],
      "name": "safeTransferFrom",
      "outputs": [],
      "stateMutability": "nonpayable",
      "type": "function"
    },
    {
      "inputs": [
        {
          "internalType": "address",
          "name": "from",
          "type": "address"
        },
        {
          "internalType": "address",
          "name": "to",
          "type": "address"
        },
        {
          "internalType": "uint256",
          "name": "tokenId",
          "type": "uint256"
        },
        {
          "internalType": "bytes",
          "name": "data",
          "type": "bytes"
        }
      ],
      "name": "safeTransferFrom",
      "outputs": [],
      "stateMutability": "nonpayable",
      "type": "function"
    },
    {
      "inputs": [
        {
          "internalType": "address",
          "name": "operator",
          "type": "address"
        },
        {
          "internalType": "bool",
          "name": "approved",
          "type": "bool"
        }
      ],
      "name": "setApprovalForAll",
      "outputs": [],
      "stateMutability": "nonpayable",
      "type": "function"
    },
    {
      "inputs": [
        {
          "internalType": "bytes4",
          "name": "interfaceId",
          "type": "bytes4"
        }
      ],
      "name": "supportsInterface",
      "outputs": [
        {
          "internalType": "bool",
          "name": "",
          "type": "bool"
        }
      ],
      "stateMutability": "view",
      "type": "function",
      "constant": true
    },
    {
      "inputs": [],
      "name": "symbol",
      "outputs": [
        {
          "internalType": "string",
          "name": "",
          "type": "string"
        }
      ],
      "stateMutability": "view",
      "type": "function",
      "constant": true
    },
    {
      "inputs": [
        {
          "internalType": "uint256",
          "name": "index",
          "type": "uint256"
        }
      ],
      "name": "tokenByIndex",
      "outputs": [
        {
          "internalType": "uint256",
          "name": "",
          "type": "uint256"
        }
      ],
      "stateMutability": "view",
      "type": "function",
      "constant": true
    },
    {
      "inputs": [
        {
          "internalType": "address",
          "name": "owner",
          "type": "address"
        },
        {
          "internalType": "uint256",
          "name": "index",
          "type": "uint256"
        }
      ],
      "name": "tokenOfOwnerByIndex",
      "outputs": [
        {
          "internalType": "uint256",
          "name": "",
          "type": "uint256"
        }
      ],
      "stateMutability": "view",
      "type": "function",
      "constant": true
    },
    {
      "inputs": [],
      "name": "totalSupply",
      "outputs": [
        {
          "internalType": "uint256",
          "name": "",
          "type": "uint256"
        }
      ],
      "stateMutability": "view",
      "type": "function",
      "constant": true
    },
    {
      "inputs": [
        {
          "internalType": "address",
          "name": "from",
          "type": "address"
        },
        {
          "internalType": "address",
          "name": "to",
          "type": "address"
        },
        {
          "internalType": "uint256",
          "name": "tokenId",
          "type": "uint256"
        }
      ],
      "name": "transferFrom",
      "outputs": [],
      "stateMutability": "nonpayable",
      "type": "function"
    },
    {
      "inputs": [
        {
          "internalType": "address",
          "name": "newOwner",
          "type": "address"
        }
      ],
      "name": "transferOwnership",
      "outputs": [],
      "stateMutability": "nonpayable",
      "type": "function"
    },
    {
      "inputs": [
        {
          "internalType": "string[]",
          "name": "words1",
          "type": "string[]"
        },
        {
          "internalType": "string",
          "name": "word2",
          "type": "string"
        }
      ],
      "name": "proposeCitations",
      "outputs": [],
      "stateMutability": "payable",
      "type": "function",
      "payable": true
    },
    {
      "inputs": [
        {
          "internalType": "address",
          "name": "user",
          "type": "address"
        }
      ],
      "name": "getProposedCitations",
      "outputs": [
        {
          "components": [
            {
              "internalType": "enum CYOC.Type",
              "name": "_type",
              "type": "uint8"
            },
            {
              "internalType": "string",
              "name": "word1",
              "type": "string"
            },
            {
              "internalType": "string",
              "name": "word2",
              "type": "string"
            }
          ],
          "internalType": "struct CYOC.Citation[]",
          "name": "",
          "type": "tuple[]"
        }
      ],
      "stateMutability": "view",
      "type": "function",
      "constant": true
    },
    {
      "inputs": [
        {
          "internalType": "uint256",
          "name": "tokenId",
          "type": "uint256"
        }
      ],
      "name": "acceptCitation",
      "outputs": [],
      "stateMutability": "nonpayable",
      "type": "function"
    },
    {
      "inputs": [
        {
          "internalType": "uint256",
          "name": "tokenId",
          "type": "uint256"
        }
      ],
      "name": "rejectCitation",
      "outputs": [],
      "stateMutability": "nonpayable",
      "type": "function"
    },
    {
      "inputs": [
        {
          "internalType": "uint256",
          "name": "tokenId",
          "type": "uint256"
        }
      ],
      "name": "tokenURI",
      "outputs": [
        {
          "internalType": "string",
          "name": "",
          "type": "string"
        }
      ],
      "stateMutability": "view",
      "type": "function",
      "constant": true
    },
    {
      "inputs": [],
      "name": "selfDestruct",
      "outputs": [],
      "stateMutability": "nonpayable",
      "type": "function"
    },
    {
      "inputs": [],
      "name": "transferContractBalance",
      "outputs": [],
      "stateMutability": "nonpayable",
      "type": "function"
    }
  ],
  "bytecode": "0x60806040523480156200001157600080fd5b506040516200634d3803806200634d8339818101604052810190620000379190620003ae565b60405180606001604052806025815260200162006328602591396040518060400160405280600481526020017f43594f4300000000000000000000000000000000000000000000000000000000815250620000a76200009b620001c860201b60201c565b620001d060201b60201c565b8160019080519060200190620000bf92919062000294565b508060029080519060200190620000d892919062000294565b50505060016012604051620000ed906200043b565b908152602001604051809103902060006101000a81548160ff021916908315150217905550600160126040516200012490620004a2565b908152602001604051809103902060006101000a81548160ff021916908315150217905550600160126040516200015b9062000509565b908152602001604051809103902060006101000a81548160ff02191690831515021790555080600b60006101000a81548173ffffffffffffffffffffffffffffffffffffffff021916908373ffffffffffffffffffffffffffffffffffffffff1602179055505062000584565b600033905090565b60008060009054906101000a900473ffffffffffffffffffffffffffffffffffffffff169050816000806101000a81548173ffffffffffffffffffffffffffffffffffffffff021916908373ffffffffffffffffffffffffffffffffffffffff1602179055508173ffffffffffffffffffffffffffffffffffffffff168173ffffffffffffffffffffffffffffffffffffffff167f8be0079c531659141344cd1fd0a4f28419497f9722a3daafe3b4186f6b6457e060405160405180910390a35050565b828054620002a2906200054f565b90600052602060002090601f016020900481019282620002c6576000855562000312565b82601f10620002e157805160ff191683800117855562000312565b8280016001018555821562000312579182015b8281111562000311578251825591602001919060010190620002f4565b5b50905062000321919062000325565b5090565b5b808211156200034057600081600090555060010162000326565b5090565b600080fd5b600073ffffffffffffffffffffffffffffffffffffffff82169050919050565b6000620003768262000349565b9050919050565b620003888162000369565b81146200039457600080fd5b50565b600081519050620003a8816200037d565b92915050565b600060208284031215620003c757620003c662000344565b5b6000620003d78482850162000397565b91505092915050565b600081905092915050565b7f536574682053696567656c617562000000000000000000000000000000000000600082015250565b600062000423600e83620003e0565b91506200043082620003eb565b600e82019050919050565b6000620004488262000414565b9150819050919050565b7f5355504552464c41540000000000000000000000000000000000000000000000600082015250565b60006200048a600983620003e0565b9150620004978262000452565b600982019050919050565b6000620004af826200047b565b9150819050919050565b7f4d65646961204172740000000000000000000000000000000000000000000000600082015250565b6000620004f1600983620003e0565b9150620004fe82620004b9565b600982019050919050565b60006200051682620004e2565b9150819050919050565b7f4e487b7100000000000000000000000000000000000000000000000000000000600052602260045260246000fd5b600060028204905060018216806200056857607f821691505b6020821081036200057e576200057d62000520565b5b50919050565b615d9480620005946000396000f3fe60806040526004361061019c5760003560e01c806370a08231116100ec578063aff180361161008a578063cc56c39e11610064578063cc56c39e146105d8578063e2a3df5a14610617578063e985e9c514610633578063f2fde38b146106705761019c565b8063aff1803614610533578063b88d4fde14610572578063c87b56dd1461059b5761019c565b806395d89b41116100c657806395d89b41146104b157806396d65f0e146104dc5780639cb8a26a146104f3578063a22cb4651461050a5761019c565b806370a0823114610432578063715018a61461046f5780638da5cb5b146104865761019c565b806323b872dd11610159578063449fdc6f11610133578063449fdc6f1461036657806349a9bac11461038f5780634f6ccce7146103b85780636352211e146103f55761019c565b806323b872dd146102d75780632f745c591461030057806342842e0e1461033d5761019c565b806301ffc9a7146101a157806306fdde03146101de578063081812fc14610209578063095ea7b31461024657806318160ddd1461026f5780632178fbc71461029a575b600080fd5b3480156101ad57600080fd5b506101c860048036038101906101c39190613ab2565b610699565b6040516101d59190613afa565b60405180910390f35b3480156101ea57600080fd5b506101f3610713565b6040516102009190613bae565b60405180910390f35b34801561021557600080fd5b50610230600480360381019061022b9190613c06565b6107a5565b60405161023d9190613c74565b60405180910390f35b34801561025257600080fd5b5061026d60048036038101906102689190613cbb565b6107eb565b005b34801561027b57600080fd5b50610284610902565b6040516102919190613d0a565b60405180910390f35b3480156102a657600080fd5b506102c160048036038101906102bc9190613d25565b61090f565b6040516102ce9190613f2c565b60405180910390f35b3480156102e357600080fd5b506102fe60048036038101906102f99190613f4e565b610b0c565b005b34801561030c57600080fd5b5061032760048036038101906103229190613cbb565b610b6c565b6040516103349190613d0a565b60405180910390f35b34801561034957600080fd5b50610364600480360381019061035f9190613f4e565b610c11565b005b34801561037257600080fd5b5061038d60048036038101906103889190613c06565b610c31565b005b34801561039b57600080fd5b506103b660048036038101906103b19190613c06565b61101e565b005b3480156103c457600080fd5b506103df60048036038101906103da9190613c06565b61140a565b6040516103ec9190613d0a565b60405180910390f35b34801561040157600080fd5b5061041c60048036038101906104179190613c06565b61147b565b6040516104299190613c74565b60405180910390f35b34801561043e57600080fd5b5061045960048036038101906104549190613d25565b611501565b6040516104669190613d0a565b60405180910390f35b34801561047b57600080fd5b506104846115b8565b005b34801561049257600080fd5b5061049b6115cc565b6040516104a89190613c74565b60405180910390f35b3480156104bd57600080fd5b506104c66115f5565b6040516104d39190613bae565b60405180910390f35b3480156104e857600080fd5b506104f1611687565b005b3480156104ff57600080fd5b50610508611722565b005b34801561051657600080fd5b50610531600480360381019061052c9190613fcd565b61174a565b005b34801561053f57600080fd5b5061055a60048036038101906105559190613cbb565b611760565b6040516105699392919061401c565b60405180910390f35b34801561057e57600080fd5b5061059960048036038101906105949190614196565b6118c4565b005b3480156105a757600080fd5b506105c260048036038101906105bd9190613c06565b611926565b6040516105cf9190613bae565b60405180910390f35b3480156105e457600080fd5b506105ff60048036038101906105fa9190613c06565b611ce6565b60405161060e9392919061401c565b60405180910390f35b610631600480360381019061062c91906142cf565b611e2d565b005b34801561063f57600080fd5b5061065a60048036038101906106559190614350565b6122ea565b6040516106679190613afa565b60405180910390f35b34801561067c57600080fd5b5061069760048036038101906106929190613d25565b61237e565b005b60007f780e9d63000000000000000000000000000000000000000000000000000000007bffffffffffffffffffffffffffffffffffffffffffffffffffffffff1916827bffffffffffffffffffffffffffffffffffffffffffffffffffffffff1916148061070c575061070b82612401565b5b9050919050565b606060018054610722906143bf565b80601f016020809104026020016040519081016040528092919081815260200182805461074e906143bf565b801561079b5780601f106107705761010080835404028352916020019161079b565b820191906000526020600020905b81548152906001019060200180831161077e57829003601f168201915b5050505050905090565b60006107b0826124e3565b6005600083815260200190815260200160002060009054906101000a900473ffffffffffffffffffffffffffffffffffffffff169050919050565b60006107f68261147b565b90508073ffffffffffffffffffffffffffffffffffffffff168373ffffffffffffffffffffffffffffffffffffffff1603610866576040517f08c379a000000000000000000000000000000000000000000000000000000000815260040161085d90614462565b60405180910390fd5b8073ffffffffffffffffffffffffffffffffffffffff1661088561252e565b73ffffffffffffffffffffffffffffffffffffffff1614806108b457506108b3816108ae61252e565b6122ea565b5b6108f3576040517f08c379a00000000000000000000000000000000000000000000000000000000081526004016108ea906144f4565b60405180910390fd5b6108fd8383612536565b505050565b6000600980549050905090565b6060600d60008373ffffffffffffffffffffffffffffffffffffffff1673ffffffffffffffffffffffffffffffffffffffff168152602001908152602001600020805480602002602001604051908101604052809291908181526020016000905b82821015610b0157838290600052602060002090600302016040518060600160405290816000820160009054906101000a900460ff1660028111156109b8576109b7613d7e565b5b60028111156109ca576109c9613d7e565b5b81526020016001820180546109de906143bf565b80601f0160208091040260200160405190810160405280929190818152602001828054610a0a906143bf565b8015610a575780601f10610a2c57610100808354040283529160200191610a57565b820191906000526020600020905b815481529060010190602001808311610a3a57829003601f168201915b50505050508152602001600282018054610a70906143bf565b80601f0160208091040260200160405190810160405280929190818152602001828054610a9c906143bf565b8015610ae95780601f10610abe57610100808354040283529160200191610ae9565b820191906000526020600020905b815481529060010190602001808311610acc57829003601f168201915b50505050508152505081526020019060010190610970565b505050509050919050565b610b1d610b1761252e565b826125ef565b610b5c576040517f08c379a0000000000000000000000000000000000000000000000000000000008152600401610b5390614586565b60405180910390fd5b610b67838383612684565b505050565b6000610b7783611501565b8210610bb8576040517f08c379a0000000000000000000000000000000000000000000000000000000008152600401610baf90614618565b60405180910390fd5b600760008473ffffffffffffffffffffffffffffffffffffffff1673ffffffffffffffffffffffffffffffffffffffff168152602001908152602001600020600083815260200190815260200160002054905092915050565b610c2c838383604051806020016040528060008152506118c4565b505050565b610c3961297d565b610c42816129fb565b8015610c95575060006002811115610c5d57610c5c613d7e565b5b600c600083815260200190815260200160002060000160009054906101000a900460ff166002811115610c9357610c92613d7e565b5b145b610cd4576040517f08c379a0000000000000000000000000000000000000000000000000000000008152600401610ccb90614684565b60405180910390fd5b6010600082815260200190815260200160002060009054906101000a900460ff1615610d35576040517f08c379a0000000000000000000000000000000000000000000000000000000008152600401610d2c90614716565b60405180910390fd5b600f600082815260200190815260200160002060009054906101000a900460ff1615610d96576040517f08c379a0000000000000000000000000000000000000000000000000000000008152600401610d8d906147a8565b60405180910390fd5b60006001610da2610902565b610dac91906147f7565b9050604051806060016040528060016002811115610dcd57610dcc613d7e565b5b8152602001600c60008581526020019081526020016000206001018054610df3906143bf565b80601f0160208091040260200160405190810160405280929190818152602001828054610e1f906143bf565b8015610e6c5780601f10610e4157610100808354040283529160200191610e6c565b820191906000526020600020905b815481529060010190602001808311610e4f57829003601f168201915b50505050508152602001600c60008581526020019081526020016000206002018054610e97906143bf565b80601f0160208091040260200160405190810160405280929190818152602001828054610ec3906143bf565b8015610f105780601f10610ee557610100808354040283529160200191610f10565b820191906000526020600020905b815481529060010190602001808311610ef357829003601f168201915b5050505050815250600c600083815260200190815260200160002060008201518160000160006101000a81548160ff02191690836002811115610f5657610f55613d7e565b5b02179055506020820151816001019080519060200190610f779291906139a3565b506040820151816002019080519060200190610f949291906139a3565b509050506001600f600084815260200190815260200160002060006101000a81548160ff02191690831515021790555060016012600c6000858152602001908152602001600020600201604051610feb91906148ec565b908152602001604051809103902060006101000a81548160ff02191690831515021790555061101a3382612a3c565b5050565b61102661297d565b61102f816129fb565b801561108257506000600281111561104a57611049613d7e565b5b600c600083815260200190815260200160002060000160009054906101000a900460ff1660028111156110805761107f613d7e565b5b145b6110c1576040517f08c379a00000000000000000000000000000000000000000000000000000000081526004016110b890614684565b60405180910390fd5b6010600082815260200190815260200160002060009054906101000a900460ff1615611122576040517f08c379a000000000000000000000000000000000000000000000000000000000815260040161111990614716565b60405180910390fd5b600f600082815260200190815260200160002060009054906101000a900460ff1615611183576040517f08c379a000000000000000000000000000000000000000000000000000000000815260040161117a906147a8565b60405180910390fd5b6000600161118f610902565b61119991906147f7565b905060405180606001604052806002808111156111b9576111b8613d7e565b5b8152602001600c600085815260200190815260200160002060010180546111df906143bf565b80601f016020809104026020016040519081016040528092919081815260200182805461120b906143bf565b80156112585780601f1061122d57610100808354040283529160200191611258565b820191906000526020600020905b81548152906001019060200180831161123b57829003601f168201915b50505050508152602001600c60008581526020019081526020016000206002018054611283906143bf565b80601f01602080910402602001604051908101604052809291908181526020018280546112af906143bf565b80156112fc5780601f106112d1576101008083540402835291602001916112fc565b820191906000526020600020905b8154815290600101906020018083116112df57829003601f168201915b5050505050815250600c600083815260200190815260200160002060008201518160000160006101000a81548160ff0219169083600281111561134257611341613d7e565b5b021790555060208201518160010190805190602001906113639291906139a3565b5060408201518160020190805190602001906113809291906139a3565b5090505060016010600084815260200190815260200160002060006101000a81548160ff02191690831515021790555060016013600c60008581526020019081526020016000206002016040516113d791906148ec565b908152602001604051809103902060006101000a81548160ff0219169083151502179055506114063382612a3c565b5050565b6000611414610902565b8210611455576040517f08c379a000000000000000000000000000000000000000000000000000000000815260040161144c90614975565b60405180910390fd5b6009828154811061146957611468614995565b5b90600052602060002001549050919050565b60008061148783612a5a565b9050600073ffffffffffffffffffffffffffffffffffffffff168173ffffffffffffffffffffffffffffffffffffffff16036114f8576040517f08c379a00000000000000000000000000000000000000000000000000000000081526004016114ef90614a10565b60405180910390fd5b80915050919050565b60008073ffffffffffffffffffffffffffffffffffffffff168273ffffffffffffffffffffffffffffffffffffffff1603611571576040517f08c379a000000000000000000000000000000000000000000000000000000000815260040161156890614aa2565b60405180910390fd5b600460008373ffffffffffffffffffffffffffffffffffffffff1673ffffffffffffffffffffffffffffffffffffffff168152602001908152602001600020549050919050565b6115c061297d565b6115ca6000612a97565b565b60008060009054906101000a900473ffffffffffffffffffffffffffffffffffffffff16905090565b606060028054611604906143bf565b80601f0160208091040260200160405190810160405280929190818152602001828054611630906143bf565b801561167d5780601f106116525761010080835404028352916020019161167d565b820191906000526020600020905b81548152906001019060200180831161166057829003601f168201915b5050505050905090565b61168f61297d565b600047116116d2576040517f08c379a00000000000000000000000000000000000000000000000000000000081526004016116c990614b0e565b60405180910390fd5b6116da6115cc565b73ffffffffffffffffffffffffffffffffffffffff166108fc479081150290604051600060405180830381858888f1935050505015801561171f573d6000803e3d6000fd5b50565b61172a61297d565b6117326115cc565b73ffffffffffffffffffffffffffffffffffffffff16ff5b61175c61175561252e565b8383612b5b565b5050565b600d602052816000526040600020818154811061177c57600080fd5b9060005260206000209060030201600091509150508060000160009054906101000a900460ff16908060010180546117b3906143bf565b80601f01602080910402602001604051908101604052809291908181526020018280546117df906143bf565b801561182c5780601f106118015761010080835404028352916020019161182c565b820191906000526020600020905b81548152906001019060200180831161180f57829003601f168201915b505050505090806002018054611841906143bf565b80601f016020809104026020016040519081016040528092919081815260200182805461186d906143bf565b80156118ba5780601f1061188f576101008083540402835291602001916118ba565b820191906000526020600020905b81548152906001019060200180831161189d57829003601f168201915b5050505050905083565b6118d56118cf61252e565b836125ef565b611914576040517f08c379a000000000000000000000000000000000000000000000000000000000815260040161190b90614586565b60405180910390fd5b61192084848484612cc7565b50505050565b6060611931826129fb565b611970576040517f08c379a000000000000000000000000000000000000000000000000000000000815260040161196790614b7a565b60405180910390fd5b6000600c60008481526020019081526020016000206040518060600160405290816000820160009054906101000a900460ff1660028111156119b5576119b4613d7e565b5b60028111156119c7576119c6613d7e565b5b81526020016001820180546119db906143bf565b80601f0160208091040260200160405190810160405280929190818152602001828054611a07906143bf565b8015611a545780601f10611a2957610100808354040283529160200191611a54565b820191906000526020600020905b815481529060010190602001808311611a3757829003601f168201915b50505050508152602001600282018054611a6d906143bf565b80601f0160208091040260200160405190810160405280929190818152602001828054611a99906143bf565b8015611ae65780601f10611abb57610100808354040283529160200191611ae6565b820191906000526020600020905b815481529060010190602001808311611ac957829003601f168201915b50505050508152505090506000600b60009054906101000a900473ffffffffffffffffffffffffffffffffffffffff1673ffffffffffffffffffffffffffffffffffffffff1663feb3111e836040518263ffffffff1660e01b8152600401611b4e9190614bf1565b600060405180830381865afa158015611b6b573d6000803e3d6000fd5b505050506040513d6000823e3d601f19601f82011682018060405250810190611b949190614cb4565b90506000611ba182612d23565b90506000611bae86612e86565b600c6000888152602001908152602001600020600201600c6000898152602001908152602001600020600101600b60009054906101000a900473ffffffffffffffffffffffffffffffffffffffff1673ffffffffffffffffffffffffffffffffffffffff1663842ff0bf600c60008c81526020019081526020016000206040518263ffffffff1660e01b8152600401611c479190614e13565b600060405180830381865afa158015611c64573d6000803e3d6000fd5b505050506040513d6000823e3d601f19601f82011682018060405250810190611c8d9190614cb4565b85604051602001611ca295949392919061521c565b6040516020818303038152906040529050611cbc81612d23565b604051602001611ccc9190615358565b604051602081830303815290604052945050505050919050565b600c6020528060005260406000206000915090508060000160009054906101000a900460ff1690806001018054611d1c906143bf565b80601f0160208091040260200160405190810160405280929190818152602001828054611d48906143bf565b8015611d955780601f10611d6a57610100808354040283529160200191611d95565b820191906000526020600020905b815481529060010190602001808311611d7857829003601f168201915b505050505090806002018054611daa906143bf565b80601f0160208091040260200160405190810160405280929190818152602001828054611dd6906143bf565b8015611e235780601f10611df857610100808354040283529160200191611e23565b820191906000526020600020905b815481529060010190602001808311611e0657829003601f168201915b5050505050905083565b83839050600111158015611e45575060058484905011155b611e84576040517f08c379a0000000000000000000000000000000000000000000000000000000008152600401611e7b906153ec565b60405180910390fd5b3466b1a2bc2ec5000085859050611e9b919061540c565b1115611edc576040517f08c379a0000000000000000000000000000000000000000000000000000000008152600401611ed3906154d8565b60405180910390fd5b60118282604051611eee92919061551d565b908152602001604051809103902060009054906101000a900460ff1615611f4a576040517f08c379a0000000000000000000000000000000000000000000000000000000008152600401611f41906155a8565b60405180910390fd5b60005b84849050811015612252576012858583818110611f6d57611f6c614995565b5b9050602002810190611f7f91906155d7565b604051611f8d92919061551d565b908152602001604051809103902060009054906101000a900460ff16611fe8576040517f08c379a0000000000000000000000000000000000000000000000000000000008152600401611fdf90615686565b60405180910390fd5b60006001611ff4610902565b611ffe91906147f7565b9050600060405180606001604052806000600281111561202157612020613d7e565b5b815260200188888681811061203957612038614995565b5b905060200281019061204b91906155d7565b8080601f016020809104026020016040519081016040528093929190818152602001838380828437600081840152601f19601f82011690508083019250505050505050815260200186868080601f016020809104026020016040519081016040528093929190818152602001838380828437600081840152601f19601f82011690508083019250505050505050815250905080600c600084815260200190815260200160002060008201518160000160006101000a81548160ff0219169083600281111561211c5761211b613d7e565b5b0217905550602082015181600101908051906020019061213d9291906139a3565b50604082015181600201908051906020019061215a9291906139a3565b509050506121683383612a3c565b600d60003373ffffffffffffffffffffffffffffffffffffffff1673ffffffffffffffffffffffffffffffffffffffff16815260200190815260200160002081908060018154018082558091505060019003906000526020600020906003020160009091909190915060008201518160000160006101000a81548160ff021916908360028111156121fc576121fb613d7e565b5b0217905550602082015181600101908051906020019061221d9291906139a3565b50604082015181600201908051906020019061223a9291906139a3565b5050505050808061224a906156a6565b915050611f4d565b506001600e60003373ffffffffffffffffffffffffffffffffffffffff1673ffffffffffffffffffffffffffffffffffffffff16815260200190815260200160002060006101000a81548160ff0219169083151502179055506001601183836040516122bf92919061551d565b908152602001604051809103902060006101000a81548160ff02191690831515021790555050505050565b6000600660008473ffffffffffffffffffffffffffffffffffffffff1673ffffffffffffffffffffffffffffffffffffffff16815260200190815260200160002060008373ffffffffffffffffffffffffffffffffffffffff1673ffffffffffffffffffffffffffffffffffffffff16815260200190815260200160002060009054906101000a900460ff16905092915050565b61238661297d565b600073ffffffffffffffffffffffffffffffffffffffff168173ffffffffffffffffffffffffffffffffffffffff16036123f5576040517f08c379a00000000000000000000000000000000000000000000000000000000081526004016123ec90615760565b60405180910390fd5b6123fe81612a97565b50565b60007f80ac58cd000000000000000000000000000000000000000000000000000000007bffffffffffffffffffffffffffffffffffffffffffffffffffffffff1916827bffffffffffffffffffffffffffffffffffffffffffffffffffffffff191614806124cc57507f5b5e139f000000000000000000000000000000000000000000000000000000007bffffffffffffffffffffffffffffffffffffffffffffffffffffffff1916827bffffffffffffffffffffffffffffffffffffffffffffffffffffffff1916145b806124dc57506124db82612f54565b5b9050919050565b6124ec816129fb565b61252b576040517f08c379a000000000000000000000000000000000000000000000000000000000815260040161252290614a10565b60405180910390fd5b50565b600033905090565b816005600083815260200190815260200160002060006101000a81548173ffffffffffffffffffffffffffffffffffffffff021916908373ffffffffffffffffffffffffffffffffffffffff160217905550808273ffffffffffffffffffffffffffffffffffffffff166125a98361147b565b73ffffffffffffffffffffffffffffffffffffffff167f8c5be1e5ebec7d5bd14f71427d1e84f3dd0314c0f7b2291e5b200ac8c7c3b92560405160405180910390a45050565b6000806125fb8361147b565b90508073ffffffffffffffffffffffffffffffffffffffff168473ffffffffffffffffffffffffffffffffffffffff16148061263d575061263c81856122ea565b5b8061267b57508373ffffffffffffffffffffffffffffffffffffffff16612663846107a5565b73ffffffffffffffffffffffffffffffffffffffff16145b91505092915050565b8273ffffffffffffffffffffffffffffffffffffffff166126a48261147b565b73ffffffffffffffffffffffffffffffffffffffff16146126fa576040517f08c379a00000000000000000000000000000000000000000000000000000000081526004016126f1906157f2565b60405180910390fd5b600073ffffffffffffffffffffffffffffffffffffffff168273ffffffffffffffffffffffffffffffffffffffff1603612769576040517f08c379a000000000000000000000000000000000000000000000000000000000815260040161276090615884565b60405180910390fd5b6127768383836001612fbe565b8273ffffffffffffffffffffffffffffffffffffffff166127968261147b565b73ffffffffffffffffffffffffffffffffffffffff16146127ec576040517f08c379a00000000000000000000000000000000000000000000000000000000081526004016127e3906157f2565b60405180910390fd5b6005600082815260200190815260200160002060006101000a81549073ffffffffffffffffffffffffffffffffffffffff02191690556001600460008573ffffffffffffffffffffffffffffffffffffffff1673ffffffffffffffffffffffffffffffffffffffff168152602001908152602001600020600082825403925050819055506001600460008473ffffffffffffffffffffffffffffffffffffffff1673ffffffffffffffffffffffffffffffffffffffff16815260200190815260200160002060008282540192505081905550816003600083815260200190815260200160002060006101000a81548173ffffffffffffffffffffffffffffffffffffffff021916908373ffffffffffffffffffffffffffffffffffffffff160217905550808273ffffffffffffffffffffffffffffffffffffffff168473ffffffffffffffffffffffffffffffffffffffff167fddf252ad1be2c89b69c2b068fc378daa952ba7f163c4a11628f55a4df523b3ef60405160405180910390a4612978838383600161311c565b505050565b61298561252e565b73ffffffffffffffffffffffffffffffffffffffff166129a36115cc565b73ffffffffffffffffffffffffffffffffffffffff16146129f9576040517f08c379a00000000000000000000000000000000000000000000000000000000081526004016129f0906158f0565b60405180910390fd5b565b60008073ffffffffffffffffffffffffffffffffffffffff16612a1d83612a5a565b73ffffffffffffffffffffffffffffffffffffffff1614159050919050565b612a56828260405180602001604052806000815250613122565b5050565b60006003600083815260200190815260200160002060009054906101000a900473ffffffffffffffffffffffffffffffffffffffff169050919050565b60008060009054906101000a900473ffffffffffffffffffffffffffffffffffffffff169050816000806101000a81548173ffffffffffffffffffffffffffffffffffffffff021916908373ffffffffffffffffffffffffffffffffffffffff1602179055508173ffffffffffffffffffffffffffffffffffffffff168173ffffffffffffffffffffffffffffffffffffffff167f8be0079c531659141344cd1fd0a4f28419497f9722a3daafe3b4186f6b6457e060405160405180910390a35050565b8173ffffffffffffffffffffffffffffffffffffffff168373ffffffffffffffffffffffffffffffffffffffff1603612bc9576040517f08c379a0000000000000000000000000000000000000000000000000000000008152600401612bc09061595c565b60405180910390fd5b80600660008573ffffffffffffffffffffffffffffffffffffffff1673ffffffffffffffffffffffffffffffffffffffff16815260200190815260200160002060008473ffffffffffffffffffffffffffffffffffffffff1673ffffffffffffffffffffffffffffffffffffffff16815260200190815260200160002060006101000a81548160ff0219169083151502179055508173ffffffffffffffffffffffffffffffffffffffff168373ffffffffffffffffffffffffffffffffffffffff167f17307eab39ab6107e8899845ad3d59bd9653f200f220920489ca2b5937696c3183604051612cba9190613afa565b60405180910390a3505050565b612cd2848484612684565b612cde8484848461317d565b612d1d576040517f08c379a0000000000000000000000000000000000000000000000000000000008152600401612d14906159ee565b60405180910390fd5b50505050565b60606000825103612d4557604051806020016040528060008152509050612e81565b6000604051806060016040528060408152602001615d1f6040913990506000600360028551612d7491906147f7565b612d7e9190615a3d565b6004612d8a919061540c565b67ffffffffffffffff811115612da357612da261406b565b5b6040519080825280601f01601f191660200182016040528015612dd55781602001600182028036833780820191505090505b509050600182016020820185865187015b80821015612e41576003820191508151603f8160121c168501518453600184019350603f81600c1c168501518453600184019350603f8160061c168501518453600184019350603f8116850151845360018401935050612de6565b5050600386510660018114612e5d5760028114612e7057612e78565b603d6001830353603d6002830353612e78565b603d60018303535b50505080925050505b919050565b606060006001612e9584613304565b01905060008167ffffffffffffffff811115612eb457612eb361406b565b5b6040519080825280601f01601f191660200182016040528015612ee65781602001600182028036833780820191505090505b509050600082602001820190505b600115612f49578080600190039150507f3031323334353637383961626364656600000000000000000000000000000000600a86061a8153600a8581612f3d57612f3c615a0e565b5b04945060008503612ef4575b819350505050919050565b60007f01ffc9a7000000000000000000000000000000000000000000000000000000007bffffffffffffffffffffffffffffffffffffffffffffffffffffffff1916827bffffffffffffffffffffffffffffffffffffffffffffffffffffffff1916149050919050565b612fca84848484613457565b600181111561300e576040517f08c379a000000000000000000000000000000000000000000000000000000000815260040161300590615ae0565b60405180910390fd5b6000829050600073ffffffffffffffffffffffffffffffffffffffff168573ffffffffffffffffffffffffffffffffffffffff1603613055576130508161345d565b613094565b8373ffffffffffffffffffffffffffffffffffffffff168573ffffffffffffffffffffffffffffffffffffffff16146130935761309285826134a6565b5b5b600073ffffffffffffffffffffffffffffffffffffffff168473ffffffffffffffffffffffffffffffffffffffff16036130d6576130d181613613565b613115565b8473ffffffffffffffffffffffffffffffffffffffff168473ffffffffffffffffffffffffffffffffffffffff16146131145761311384826136e4565b5b5b5050505050565b50505050565b61312c8383613763565b613139600084848461317d565b613178576040517f08c379a000000000000000000000000000000000000000000000000000000000815260040161316f906159ee565b60405180910390fd5b505050565b600061319e8473ffffffffffffffffffffffffffffffffffffffff16613980565b156132f7578373ffffffffffffffffffffffffffffffffffffffff1663150b7a026131c761252e565b8786866040518563ffffffff1660e01b81526004016131e99493929190615b55565b6020604051808303816000875af192505050801561322557506040513d601f19601f820116820180604052508101906132229190615bb6565b60015b6132a7573d8060008114613255576040519150601f19603f3d011682016040523d82523d6000602084013e61325a565b606091505b50600081510361329f576040517f08c379a0000000000000000000000000000000000000000000000000000000008152600401613296906159ee565b60405180910390fd5b805181602001fd5b63150b7a0260e01b7bffffffffffffffffffffffffffffffffffffffffffffffffffffffff1916817bffffffffffffffffffffffffffffffffffffffffffffffffffffffff1916149150506132fc565b600190505b949350505050565b600080600090507a184f03e93ff9f4daa797ed6e38ed64bf6a1f0100000000000000008310613362577a184f03e93ff9f4daa797ed6e38ed64bf6a1f010000000000000000838161335857613357615a0e565b5b0492506040810190505b6d04ee2d6d415b85acef8100000000831061339f576d04ee2d6d415b85acef8100000000838161339557613394615a0e565b5b0492506020810190505b662386f26fc1000083106133ce57662386f26fc1000083816133c4576133c3615a0e565b5b0492506010810190505b6305f5e10083106133f7576305f5e10083816133ed576133ec615a0e565b5b0492506008810190505b612710831061341c57612710838161341257613411615a0e565b5b0492506004810190505b6064831061343f576064838161343557613434615a0e565b5b0492506002810190505b600a831061344e576001810190505b80915050919050565b50505050565b600980549050600a600083815260200190815260200160002081905550600981908060018154018082558091505060019003906000526020600020016000909190919091505550565b600060016134b384611501565b6134bd9190615be3565b90506000600860008481526020019081526020016000205490508181146135a2576000600760008673ffffffffffffffffffffffffffffffffffffffff1673ffffffffffffffffffffffffffffffffffffffff168152602001908152602001600020600084815260200190815260200160002054905080600760008773ffffffffffffffffffffffffffffffffffffffff1673ffffffffffffffffffffffffffffffffffffffff168152602001908152602001600020600084815260200190815260200160002081905550816008600083815260200190815260200160002081905550505b6008600084815260200190815260200160002060009055600760008573ffffffffffffffffffffffffffffffffffffffff1673ffffffffffffffffffffffffffffffffffffffff16815260200190815260200160002060008381526020019081526020016000206000905550505050565b600060016009805490506136279190615be3565b90506000600a600084815260200190815260200160002054905060006009838154811061365757613656614995565b5b90600052602060002001549050806009838154811061367957613678614995565b5b906000526020600020018190555081600a600083815260200190815260200160002081905550600a60008581526020019081526020016000206000905560098054806136c8576136c7615c17565b5b6001900381819060005260206000200160009055905550505050565b60006136ef83611501565b905081600760008573ffffffffffffffffffffffffffffffffffffffff1673ffffffffffffffffffffffffffffffffffffffff168152602001908152602001600020600083815260200190815260200160002081905550806008600084815260200190815260200160002081905550505050565b600073ffffffffffffffffffffffffffffffffffffffff168273ffffffffffffffffffffffffffffffffffffffff16036137d2576040517f08c379a00000000000000000000000000000000000000000000000000000000081526004016137c990615c92565b60405180910390fd5b6137db816129fb565b1561381b576040517f08c379a000000000000000000000000000000000000000000000000000000000815260040161381290615cfe565b60405180910390fd5b613829600083836001612fbe565b613832816129fb565b15613872576040517f08c379a000000000000000000000000000000000000000000000000000000000815260040161386990615cfe565b60405180910390fd5b6001600460008473ffffffffffffffffffffffffffffffffffffffff1673ffffffffffffffffffffffffffffffffffffffff16815260200190815260200160002060008282540192505081905550816003600083815260200190815260200160002060006101000a81548173ffffffffffffffffffffffffffffffffffffffff021916908373ffffffffffffffffffffffffffffffffffffffff160217905550808273ffffffffffffffffffffffffffffffffffffffff16600073ffffffffffffffffffffffffffffffffffffffff167fddf252ad1be2c89b69c2b068fc378daa952ba7f163c4a11628f55a4df523b3ef60405160405180910390a461397c60008383600161311c565b5050565b6000808273ffffffffffffffffffffffffffffffffffffffff163b119050919050565b8280546139af906143bf565b90600052602060002090601f0160209004810192826139d15760008555613a18565b82601f106139ea57805160ff1916838001178555613a18565b82800160010185558215613a18579182015b82811115613a175782518255916020019190600101906139fc565b5b509050613a259190613a29565b5090565b5b80821115613a42576000816000905550600101613a2a565b5090565b6000604051905090565b600080fd5b600080fd5b60007fffffffff0000000000000000000000000000000000000000000000000000000082169050919050565b613a8f81613a5a565b8114613a9a57600080fd5b50565b600081359050613aac81613a86565b92915050565b600060208284031215613ac857613ac7613a50565b5b6000613ad684828501613a9d565b91505092915050565b60008115159050919050565b613af481613adf565b82525050565b6000602082019050613b0f6000830184613aeb565b92915050565b600081519050919050565b600082825260208201905092915050565b60005b83811015613b4f578082015181840152602081019050613b34565b83811115613b5e576000848401525b50505050565b6000601f19601f8301169050919050565b6000613b8082613b15565b613b8a8185613b20565b9350613b9a818560208601613b31565b613ba381613b64565b840191505092915050565b60006020820190508181036000830152613bc88184613b75565b905092915050565b6000819050919050565b613be381613bd0565b8114613bee57600080fd5b50565b600081359050613c0081613bda565b92915050565b600060208284031215613c1c57613c1b613a50565b5b6000613c2a84828501613bf1565b91505092915050565b600073ffffffffffffffffffffffffffffffffffffffff82169050919050565b6000613c5e82613c33565b9050919050565b613c6e81613c53565b82525050565b6000602082019050613c896000830184613c65565b92915050565b613c9881613c53565b8114613ca357600080fd5b50565b600081359050613cb581613c8f565b92915050565b60008060408385031215613cd257613cd1613a50565b5b6000613ce085828601613ca6565b9250506020613cf185828601613bf1565b9150509250929050565b613d0481613bd0565b82525050565b6000602082019050613d1f6000830184613cfb565b92915050565b600060208284031215613d3b57613d3a613a50565b5b6000613d4984828501613ca6565b91505092915050565b600081519050919050565b600082825260208201905092915050565b6000819050602082019050919050565b7f4e487b7100000000000000000000000000000000000000000000000000000000600052602160045260246000fd5b60038110613dbe57613dbd613d7e565b5b50565b6000819050613dcf82613dad565b919050565b6000613ddf82613dc1565b9050919050565b613def81613dd4565b82525050565b600082825260208201905092915050565b6000613e1182613b15565b613e1b8185613df5565b9350613e2b818560208601613b31565b613e3481613b64565b840191505092915050565b6000606083016000830151613e576000860182613de6565b5060208301518482036020860152613e6f8282613e06565b91505060408301518482036040860152613e898282613e06565b9150508091505092915050565b6000613ea28383613e3f565b905092915050565b6000602082019050919050565b6000613ec282613d52565b613ecc8185613d5d565b935083602082028501613ede85613d6e565b8060005b85811015613f1a5784840389528151613efb8582613e96565b9450613f0683613eaa565b925060208a01995050600181019050613ee2565b50829750879550505050505092915050565b60006020820190508181036000830152613f468184613eb7565b905092915050565b600080600060608486031215613f6757613f66613a50565b5b6000613f7586828701613ca6565b9350506020613f8686828701613ca6565b9250506040613f9786828701613bf1565b9150509250925092565b613faa81613adf565b8114613fb557600080fd5b50565b600081359050613fc781613fa1565b92915050565b60008060408385031215613fe457613fe3613a50565b5b6000613ff285828601613ca6565b925050602061400385828601613fb8565b9150509250929050565b61401681613dd4565b82525050565b6000606082019050614031600083018661400d565b81810360208301526140438185613b75565b905081810360408301526140578184613b75565b9050949350505050565b600080fd5b600080fd5b7f4e487b7100000000000000000000000000000000000000000000000000000000600052604160045260246000fd5b6140a382613b64565b810181811067ffffffffffffffff821117156140c2576140c161406b565b5b80604052505050565b60006140d5613a46565b90506140e1828261409a565b919050565b600067ffffffffffffffff8211156141015761410061406b565b5b61410a82613b64565b9050602081019050919050565b82818337600083830152505050565b6000614139614134846140e6565b6140cb565b90508281526020810184848401111561415557614154614066565b5b614160848285614117565b509392505050565b600082601f83011261417d5761417c614061565b5b813561418d848260208601614126565b91505092915050565b600080600080608085870312156141b0576141af613a50565b5b60006141be87828801613ca6565b94505060206141cf87828801613ca6565b93505060406141e087828801613bf1565b925050606085013567ffffffffffffffff81111561420157614200613a55565b5b61420d87828801614168565b91505092959194509250565b600080fd5b600080fd5b60008083601f84011261423957614238614061565b5b8235905067ffffffffffffffff81111561425657614255614219565b5b6020830191508360208202830111156142725761427161421e565b5b9250929050565b60008083601f84011261428f5761428e614061565b5b8235905067ffffffffffffffff8111156142ac576142ab614219565b5b6020830191508360018202830111156142c8576142c761421e565b5b9250929050565b600080600080604085870312156142e9576142e8613a50565b5b600085013567ffffffffffffffff81111561430757614306613a55565b5b61431387828801614223565b9450945050602085013567ffffffffffffffff81111561433657614335613a55565b5b61434287828801614279565b925092505092959194509250565b6000806040838503121561436757614366613a50565b5b600061437585828601613ca6565b925050602061438685828601613ca6565b9150509250929050565b7f4e487b7100000000000000000000000000000000000000000000000000000000600052602260045260246000fd5b600060028204905060018216806143d757607f821691505b6020821081036143ea576143e9614390565b5b50919050565b7f4552433732313a20617070726f76616c20746f2063757272656e74206f776e6560008201527f7200000000000000000000000000000000000000000000000000000000000000602082015250565b600061444c602183613b20565b9150614457826143f0565b604082019050919050565b6000602082019050818103600083015261447b8161443f565b9050919050565b7f4552433732313a20617070726f76652063616c6c6572206973206e6f7420746f60008201527f6b656e206f776e6572206f7220617070726f76656420666f7220616c6c000000602082015250565b60006144de603d83613b20565b91506144e982614482565b604082019050919050565b6000602082019050818103600083015261450d816144d1565b9050919050565b7f4552433732313a2063616c6c6572206973206e6f7420746f6b656e206f776e6560008201527f72206f7220617070726f76656400000000000000000000000000000000000000602082015250565b6000614570602d83613b20565b915061457b82614514565b604082019050919050565b6000602082019050818103600083015261459f81614563565b9050919050565b7f455243373231456e756d657261626c653a206f776e657220696e646578206f7560008201527f74206f6620626f756e6473000000000000000000000000000000000000000000602082015250565b6000614602602b83613b20565b915061460d826145a6565b604082019050919050565b60006020820190508181036000830152614631816145f5565b9050919050565b7f54686973204e4654206973206e6f7420666f722070726f706f73616c2e000000600082015250565b600061466e601d83613b20565b915061467982614638565b602082019050919050565b6000602082019050818103600083015261469d81614661565b9050919050565b7f546869732070726f706f73616c2068617320616c7265616479206265656e207260008201527f656a65637465642e000000000000000000000000000000000000000000000000602082015250565b6000614700602883613b20565b915061470b826146a4565b604082019050919050565b6000602082019050818103600083015261472f816146f3565b9050919050565b7f546869732070726f706f73616c2068617320616c7265616479206265656e206160008201527f636365707465642e000000000000000000000000000000000000000000000000602082015250565b6000614792602883613b20565b915061479d82614736565b604082019050919050565b600060208201905081810360008301526147c181614785565b9050919050565b7f4e487b7100000000000000000000000000000000000000000000000000000000600052601160045260246000fd5b600061480282613bd0565b915061480d83613bd0565b9250827fffffffffffffffffffffffffffffffffffffffffffffffffffffffffffffffff03821115614842576148416147c8565b5b828201905092915050565b600081905092915050565b60008190508160005260206000209050919050565b6000815461487a816143bf565b614884818661484d565b9450600182166000811461489f57600181146148b0576148e3565b60ff198316865281860193506148e3565b6148b985614858565b60005b838110156148db578154818901526001820191506020810190506148bc565b838801955050505b50505092915050565b60006148f8828461486d565b915081905092915050565b7f455243373231456e756d657261626c653a20676c6f62616c20696e646578206f60008201527f7574206f6620626f756e64730000000000000000000000000000000000000000602082015250565b600061495f602c83613b20565b915061496a82614903565b604082019050919050565b6000602082019050818103600083015261498e81614952565b9050919050565b7f4e487b7100000000000000000000000000000000000000000000000000000000600052603260045260246000fd5b7f4552433732313a20696e76616c696420746f6b656e2049440000000000000000600082015250565b60006149fa601883613b20565b9150614a05826149c4565b602082019050919050565b60006020820190508181036000830152614a29816149ed565b9050919050565b7f4552433732313a2061646472657373207a65726f206973206e6f74206120766160008201527f6c6964206f776e65720000000000000000000000000000000000000000000000602082015250565b6000614a8c602983613b20565b9150614a9782614a30565b604082019050919050565b60006020820190508181036000830152614abb81614a7f565b9050919050565b7f4e6f2062616c616e636520746f207472616e7366657200000000000000000000600082015250565b6000614af8601683613b20565b9150614b0382614ac2565b602082019050919050565b60006020820190508181036000830152614b2781614aeb565b9050919050565b7f55524920717565727920666f72206e6f6e6578697374656e7420746f6b656e00600082015250565b6000614b64601f83613b20565b9150614b6f82614b2e565b602082019050919050565b60006020820190508181036000830152614b9381614b57565b9050919050565b6000606083016000830151614bb26000860182613de6565b5060208301518482036020860152614bca8282613e06565b91505060408301518482036040860152614be48282613e06565b9150508091505092915050565b60006020820190508181036000830152614c0b8184614b9a565b905092915050565b600067ffffffffffffffff821115614c2e57614c2d61406b565b5b614c3782613b64565b9050602081019050919050565b6000614c57614c5284614c13565b6140cb565b905082815260208101848484011115614c7357614c72614066565b5b614c7e848285613b31565b509392505050565b600082601f830112614c9b57614c9a614061565b5b8151614cab848260208601614c44565b91505092915050565b600060208284031215614cca57614cc9613a50565b5b600082015167ffffffffffffffff811115614ce857614ce7613a55565b5b614cf484828501614c86565b91505092915050565b60008160001c9050919050565b600060ff82169050919050565b6000614d2a614d2583614cfd565b614d0a565b9050919050565b60008154614d3e816143bf565b614d488186613df5565b94506001821660008114614d635760018114614d7557614da8565b60ff1983168652602086019350614da8565b614d7e85614858565b60005b83811015614da057815481890152600182019150602081019050614d81565b808801955050505b50505092915050565b6000606083016000808401549050614dc881614d17565b614dd56000870182613de6565b50600184018583036020870152614dec8382614d31565b925050600284018583036040870152614e058382614d31565b925050819250505092915050565b60006020820190508181036000830152614e2d8184614db1565b905092915050565b7f7b00000000000000000000000000000000000000000000000000000000000000600082015250565b6000614e6b60018361484d565b9150614e7682614e35565b600182019050919050565b7f226e616d65223a202243594f4320230000000000000000000000000000000000600082015250565b6000614eb7600f8361484d565b9150614ec282614e81565b600f82019050919050565b6000614ed882613b15565b614ee2818561484d565b9350614ef2818560208601613b31565b80840191505092915050565b7f222c000000000000000000000000000000000000000000000000000000000000600082015250565b6000614f3460028361484d565b9150614f3f82614efe565b600282019050919050565b7f226465736372697074696f6e223a202228000000000000000000000000000000600082015250565b6000614f8060118361484d565b9150614f8b82614f4a565b601182019050919050565b7f2000000000000000000000000000000000000000000000000000000000000000600082015250565b6000614fcc60018361484d565b9150614fd782614f96565b600182019050919050565b7f6369746573000000000000000000000000000000000000000000000000000000600082015250565b600061501860058361484d565b915061502382614fe2565b600582019050919050565b7f2900000000000000000000000000000000000000000000000000000000000000600082015250565b600061506460018361484d565b915061506f8261502e565b600182019050919050565b7f6973206865726562790000000000000000000000000000000000000000000000600082015250565b60006150b060098361484d565b91506150bb8261507a565b600982019050919050565b7f2e222c0000000000000000000000000000000000000000000000000000000000600082015250565b60006150fc60038361484d565b9150615107826150c6565b600382019050919050565b7f22696d616765223a2022646174613a696d6167652f7376672b786d6c3b62617360008201527f6536342c00000000000000000000000000000000000000000000000000000000602082015250565b600061516e60248361484d565b915061517982615112565b602482019050919050565b7f2200000000000000000000000000000000000000000000000000000000000000600082015250565b60006151ba60018361484d565b91506151c582615184565b600182019050919050565b7f7d00000000000000000000000000000000000000000000000000000000000000600082015250565b600061520660018361484d565b9150615211826151d0565b600182019050919050565b600061522782614e5e565b915061523282614eaa565b915061523e8288614ecd565b915061524982614f27565b915061525482614f73565b9150615260828761486d565b915061526b82614fbf565b91506152768261500b565b915061528182614fbf565b915061528d828661486d565b915061529882615057565b91506152a382614fbf565b91506152ae826150a3565b91506152b982614fbf565b91506152c58285614ecd565b91506152d0826150ef565b91506152db82615161565b91506152e78284614ecd565b91506152f2826151ad565b91506152fd826151f9565b91508190509695505050505050565b7f646174613a6170706c69636174696f6e2f6a736f6e3b6261736536342c000000600082015250565b6000615342601d8361484d565b915061534d8261530c565b601d82019050919050565b600061536382615335565b915061536f8284614ecd565b915081905092915050565b7f546865206e756d626572206f6620636974656420776f726473206d757374206260008201527f65206265747765656e203120616e6420352e0000000000000000000000000000602082015250565b60006153d6603283613b20565b91506153e18261537a565b604082019050919050565b60006020820190508181036000830152615405816153c9565b9050919050565b600061541782613bd0565b915061542283613bd0565b9250817fffffffffffffffffffffffffffffffffffffffffffffffffffffffffffffffff048311821515161561545b5761545a6147c8565b5b828202905092915050565b7f596f75206d7573742070617920302e303520657468657220706572206369746160008201527f74696f6e2070726f706f73616c2e000000000000000000000000000000000000602082015250565b60006154c2602e83613b20565b91506154cd82615466565b604082019050919050565b600060208201905081810360008301526154f1816154b5565b9050919050565b6000615504838561484d565b9350615511838584614117565b82840190509392505050565b600061552a8284866154f8565b91508190509392505050565b7f436974696e6720776f72642068617320616c7265616479206265656e2070726f60008201527f706f7365642e0000000000000000000000000000000000000000000000000000602082015250565b6000615592602683613b20565b915061559d82615536565b604082019050919050565b600060208201905081810360008301526155c181615585565b9050919050565b600080fd5b600080fd5b600080fd5b600080833560016020038436030381126155f4576155f36155c8565b5b80840192508235915067ffffffffffffffff821115615616576156156155cd565b5b602083019250600182023603831315615632576156316155d2565b5b509250929050565b7f436974656420776f726473206d7573742062652061636365707465642e000000600082015250565b6000615670601d83613b20565b915061567b8261563a565b602082019050919050565b6000602082019050818103600083015261569f81615663565b9050919050565b60006156b182613bd0565b91507fffffffffffffffffffffffffffffffffffffffffffffffffffffffffffffffff82036156e3576156e26147c8565b5b600182019050919050565b7f4f776e61626c653a206e6577206f776e657220697320746865207a65726f206160008201527f6464726573730000000000000000000000000000000000000000000000000000602082015250565b600061574a602683613b20565b9150615755826156ee565b604082019050919050565b600060208201905081810360008301526157798161573d565b9050919050565b7f4552433732313a207472616e736665722066726f6d20696e636f72726563742060008201527f6f776e6572000000000000000000000000000000000000000000000000000000602082015250565b60006157dc602583613b20565b91506157e782615780565b604082019050919050565b6000602082019050818103600083015261580b816157cf565b9050919050565b7f4552433732313a207472616e7366657220746f20746865207a65726f2061646460008201527f7265737300000000000000000000000000000000000000000000000000000000602082015250565b600061586e602483613b20565b915061587982615812565b604082019050919050565b6000602082019050818103600083015261589d81615861565b9050919050565b7f4f776e61626c653a2063616c6c6572206973206e6f7420746865206f776e6572600082015250565b60006158da602083613b20565b91506158e5826158a4565b602082019050919050565b60006020820190508181036000830152615909816158cd565b9050919050565b7f4552433732313a20617070726f766520746f2063616c6c657200000000000000600082015250565b6000615946601983613b20565b915061595182615910565b602082019050919050565b6000602082019050818103600083015261597581615939565b9050919050565b7f4552433732313a207472616e7366657220746f206e6f6e20455243373231526560008201527f63656976657220696d706c656d656e7465720000000000000000000000000000602082015250565b60006159d8603283613b20565b91506159e38261597c565b604082019050919050565b60006020820190508181036000830152615a07816159cb565b9050919050565b7f4e487b7100000000000000000000000000000000000000000000000000000000600052601260045260246000fd5b6000615a4882613bd0565b9150615a5383613bd0565b925082615a6357615a62615a0e565b5b828204905092915050565b7f455243373231456e756d657261626c653a20636f6e736563757469766520747260008201527f616e7366657273206e6f7420737570706f727465640000000000000000000000602082015250565b6000615aca603583613b20565b9150615ad582615a6e565b604082019050919050565b60006020820190508181036000830152615af981615abd565b9050919050565b600081519050919050565b600082825260208201905092915050565b6000615b2782615b00565b615b318185615b0b565b9350615b41818560208601613b31565b615b4a81613b64565b840191505092915050565b6000608082019050615b6a6000830187613c65565b615b776020830186613c65565b615b846040830185613cfb565b8181036060830152615b968184615b1c565b905095945050505050565b600081519050615bb081613a86565b92915050565b600060208284031215615bcc57615bcb613a50565b5b6000615bda84828501615ba1565b91505092915050565b6000615bee82613bd0565b9150615bf983613bd0565b925082821015615c0c57615c0b6147c8565b5b828203905092915050565b7f4e487b7100000000000000000000000000000000000000000000000000000000600052603160045260246000fd5b7f4552433732313a206d696e7420746f20746865207a65726f2061646472657373600082015250565b6000615c7c602083613b20565b9150615c8782615c46565b602082019050919050565b60006020820190508181036000830152615cab81615c6f565b9050919050565b7f4552433732313a20746f6b656e20616c7265616479206d696e74656400000000600082015250565b6000615ce8601c83613b20565b9150615cf382615cb2565b602082019050919050565b60006020820190508181036000830152615d1781615cdb565b905091905056fe4142434445464748494a4b4c4d4e4f505152535455565758595a6162636465666768696a6b6c6d6e6f707172737475767778797a303132333435363738392b2fa2646970667358221220c845dc664fd6b950031c016c17564f98e19dfbd586c0626963f085ae92f6a71f64736f6c634300080d0033436f6e636569766520596f757273656c66206f6620596f7572204f776e20436f6e74657874",
  "immutableReferences": {},
  "source": "// SPDX-License-Identifier: MIT\n\npragma solidity ^0.8.0;\n\nimport \"@openzeppelin/contracts/token/ERC721/extensions/ERC721Enumerable.sol\";\nimport \"@openzeppelin/contracts/access/Ownable.sol\";\nimport \"@openzeppelin/contracts/utils/Base64.sol\";\nimport \"@openzeppelin/contracts/utils/Strings.sol\";\nimport \"./cyoc.sol\"; \n\ncontract CYOC_c is Ownable, ERC721Enumerable {\n    using Strings for uint256;\n    CYOC cyoc; \n\n    // mapping for tokenId => NFT content\n    mapping(uint256 => CYOC.Citation) public _citations;\n    // mapping for showing NFT content proposed by each address\n    mapping(address => CYOC.Citation[]) public _addressProposedCitations;\n\n    // mapping to show whether each address proposed citation relationships \n    mapping(address => bool) private _addressHasProposed;\n    // list of words proposed by each address\n    // mapping(address => string[]) private _wordsAddressHasProposed;\n\n    // mapping to show whether a given tokenId is accepted/rejected \n    mapping(uint256 => bool) private _tokenHasBeenAccepted;\n    mapping(uint256 => bool) private _tokenHasBeenRejected;\n\n    // list of proposed words \n    // string[] private proposedWords; \n    mapping(string => bool) private _proposedExists;\n    // list of accepted words\n    // string[] private acceptedWords; \n    mapping(string => bool) private _acceptedExists;\n    // list of rejected words\n    // string[] private rejectedWords; \n    mapping(string => bool) private _rejectedExists;\n    //mapping(uint256 => bool) private _seenValues;\n\n    // constructor\n    constructor(address payable _addr) ERC721(\"Conceive Yourself of Your Own Context\", \"CYOC\") {\n        // acceptedWords.push(\"Seth Siegelaub\");\n        // acceptedWords.push(\"SUPERFLAT\");\n        // acceptedWords.push(\"Media Art\");\n        _acceptedExists[\"Seth Siegelaub\"] = true;\n        _acceptedExists[\"SUPERFLAT\"] = true;\n        _acceptedExists[\"Media Art\"] = true;\n        cyoc = CYOC(_addr);\n    }\n\n    // function to propose citation relationships\n    function proposeCitations(string[] calldata words1, string calldata word2) external payable { \n        // address can propose up to five word1s per word2\n        require(1 <= words1.length && words1.length <= 5, \"The number of cited words must be between 1 and 5.\"); \n        require(words1.length * 0.05 ether <= msg.value, \"You must pay 0.05 ether per citation proposal.\"); \n        //require(!_addressHasProposed[msg.sender], \"You can only submit a proposal once.\");\n        // check that the citing word is not already proposed\n        require(!_proposedExists[word2], \"Citing word has already been proposed.\");\n        for (uint256 i = 0; i < words1.length; i++){\n            // check that the cited word is already accepted\n            require(_acceptedExists[words1[i]], \"Cited words must be accepted.\");\n\n            uint256 tokenId = totalSupply() + 1;\n            CYOC.Citation memory c = CYOC.Citation(CYOC.Type.Proposed, words1[i], word2);\n            // record NFT content\n            _citations[tokenId] = c;\n            // mint proposedNFT\n            _safeMint(msg.sender, tokenId);\n            // connect minted NFT to address\n            _addressProposedCitations[msg.sender].push(c);\n        }\n        // record minted action \n        _addressHasProposed[msg.sender] = true;\n        //_wordsAddressHasProposed[msg.sender].push(word2);\n        // proposedWords.push(word2);\n        _proposedExists[word2] = true;\n    }\n\n    // function to return all NFTs proposed by a given address\n    function getProposedCitations(address user) external view returns (CYOC.Citation[] memory) {\n        return _addressProposedCitations[user];\n    }\n\n    // function to accept proposals (tentative) \n    function acceptCitation(uint256 tokenId) external onlyOwner {\n        require(_exists(tokenId) && _citations[tokenId]._type == CYOC.Type.Proposed, \"This NFT is not for proposal.\");\n        require(!_tokenHasBeenRejected[tokenId], \"This proposal has already been rejected.\");\n        require(!_tokenHasBeenAccepted[tokenId], \"This proposal has already been accepted.\");\n        // mint new tokenID\n        uint256 newId = totalSupply() + 1;\n        // record NFT content\n        _citations[newId] = CYOC.Citation(CYOC.Type.Accepted, _citations[tokenId].word1, _citations[tokenId].word2);\n        // record 'accepted' result\n        _tokenHasBeenAccepted[tokenId] = true;\n        // record accepted words\n        // acceptedWords.push(_citations[tokenId].word2);\n        _acceptedExists[_citations[tokenId].word2] = true;\n\n        // mint acceptedNFT\n        _safeMint(msg.sender, newId);\n    }\n    \n    // function to reject proposals (tentative)\n    function rejectCitation(uint256 tokenId) external onlyOwner {\n        require(_exists(tokenId) && _citations[tokenId]._type == CYOC.Type.Proposed, \"This NFT is not for proposal.\");\n        require(!_tokenHasBeenRejected[tokenId], \"This proposal has already been rejected.\");\n        require(!_tokenHasBeenAccepted[tokenId], \"This proposal has already been accepted.\");\n        // mint new tokenID\n        uint256 newId = totalSupply() + 1;\n        // record NFT content\n        _citations[newId] = CYOC.Citation(CYOC.Type.Rejected, _citations[tokenId].word1, _citations[tokenId].word2);\n        // record 'rejected' result\n        _tokenHasBeenRejected[tokenId] = true;\n        // record rejected words\n        // rejectedWords.push(_citations[tokenId].word2);\n        _rejectedExists[_citations[tokenId].word2] = true;\n        \n        // mint rejectedNFT\n        _safeMint(msg.sender, newId);\n    }\n    \n    // tokenURI function to show NFT content\n    function tokenURI(uint256 tokenId) public view override returns (string memory) {\n        require(_exists(tokenId), \"URI query for nonexistent token\");\n        // get NFT content\n        CYOC.Citation memory citation = _citations[tokenId];\n        // generate svg image\n        string memory svgImage = cyoc.generateSVGImage(citation);\n        // base64 encoding for svg images\n        string memory svgImageBase64Encoded = Base64.encode(bytes(svgImage));\n        // generate JSON data\n        string memory json = string(\n            abi.encodePacked(\n                '{',\n                '\"name\": \"CYOC #', tokenId.toString(), '\",',\n                '\"description\": \"(', _citations[tokenId].word2, ' ', 'cites', ' ', _citations[tokenId].word1, ')', ' ', 'is hereby', ' ', cyoc.nftTypeToString(_citations[tokenId]),'.\",', \n                '\"image\": \"data:image/svg+xml;base64,', svgImageBase64Encoded, '\"',\n                '}'\n            )\n        );\n        return string(abi.encodePacked(\"data:application/json;base64,\", Base64.encode(bytes(json)))); \n        //return json;\n    }\n\n    function selfDestruct() external onlyOwner {\n        selfdestruct(payable(owner()));\n    }\n\n    function transferContractBalance() external onlyOwner {\n        require(address(this).balance > 0, \"No balance to transfer\");\n        payable(owner()).transfer(address(this).balance);\n    }\n\n}\n",
  "sourcePath": "/Users/Kensuke/work/nftbox/contracts/cyoc_consensus.sol",
  "compiler": {
    "name": "solc",
    "version": "0.8.13+commit.abaa5c0e.Emscripten.clang"
  },
  "schemaVersion": "3.4.12",
  "updatedAt": "2023-06-05T06:46:16.261Z",
  "networkType": "ethereum",
  "devdoc": {
    "kind": "dev",
    "methods": {
      "approve(address,uint256)": {
        "details": "See {IERC721-approve}."
      },
      "balanceOf(address)": {
        "details": "See {IERC721-balanceOf}."
      },
      "getApproved(uint256)": {
        "details": "See {IERC721-getApproved}."
      },
      "isApprovedForAll(address,address)": {
        "details": "See {IERC721-isApprovedForAll}."
      },
      "name()": {
        "details": "See {IERC721Metadata-name}."
      },
      "owner()": {
        "details": "Returns the address of the current owner."
      },
      "ownerOf(uint256)": {
        "details": "See {IERC721-ownerOf}."
      },
      "renounceOwnership()": {
        "details": "Leaves the contract without owner. It will not be possible to call `onlyOwner` functions. Can only be called by the current owner. NOTE: Renouncing ownership will leave the contract without an owner, thereby disabling any functionality that is only available to the owner."
      },
      "safeTransferFrom(address,address,uint256)": {
        "details": "See {IERC721-safeTransferFrom}."
      },
      "safeTransferFrom(address,address,uint256,bytes)": {
        "details": "See {IERC721-safeTransferFrom}."
      },
      "setApprovalForAll(address,bool)": {
        "details": "See {IERC721-setApprovalForAll}."
      },
      "supportsInterface(bytes4)": {
        "details": "See {IERC165-supportsInterface}."
      },
      "symbol()": {
        "details": "See {IERC721Metadata-symbol}."
      },
      "tokenByIndex(uint256)": {
        "details": "See {IERC721Enumerable-tokenByIndex}."
      },
      "tokenOfOwnerByIndex(address,uint256)": {
        "details": "See {IERC721Enumerable-tokenOfOwnerByIndex}."
      },
      "tokenURI(uint256)": {
        "details": "See {IERC721Metadata-tokenURI}."
      },
      "totalSupply()": {
        "details": "See {IERC721Enumerable-totalSupply}."
      },
      "transferFrom(address,address,uint256)": {
        "details": "See {IERC721-transferFrom}."
      },
      "transferOwnership(address)": {
        "details": "Transfers ownership of the contract to a new account (`newOwner`). Can only be called by the current owner."
      }
    },
    "version": 1
  },
  "userdoc": {
    "kind": "user",
    "methods": {},
    "version": 1
  }
}