{
  "contractName": "CYOC",
  "abi": [
    {
      "stateMutability": "payable",
      "type": "receive",
      "payable": true
    },
    {
      "inputs": [
        {
          "components": [
            {
              "internalType": "enum CYOC.Type",
              "name": "_type",
              "type": "uint8"
            },
            {
              "internalType": "string",
              "name": "word1",
              "type": "string"
            },
            {
              "internalType": "string",
              "name": "word2",
              "type": "string"
            }
          ],
          "internalType": "struct CYOC.Citation",
          "name": "citation",
          "type": "tuple"
        }
      ],
      "name": "generateSVGImage",
      "outputs": [
        {
          "internalType": "string",
          "name": "",
          "type": "string"
        }
      ],
      "stateMutability": "pure",
      "type": "function",
      "constant": true
    },
    {
      "inputs": [
        {
          "components": [
            {
              "internalType": "enum CYOC.Type",
              "name": "_type",
              "type": "uint8"
            },
            {
              "internalType": "string",
              "name": "word1",
              "type": "string"
            },
            {
              "internalType": "string",
              "name": "word2",
              "type": "string"
            }
          ],
          "internalType": "struct CYOC.Citation",
          "name": "citation",
          "type": "tuple"
        }
      ],
      "name": "nftTypeToString",
      "outputs": [
        {
          "internalType": "string",
          "name": "",
          "type": "string"
        }
      ],
      "stateMutability": "pure",
      "type": "function",
      "constant": true
    }
  ],
  "bytecode": "0x608060405234801561001057600080fd5b50611141806100206000396000f3fe60806040526004361061002d5760003560e01c8063842ff0bf14610039578063feb3111e1461007657610034565b3661003457005b600080fd5b34801561004557600080fd5b50610060600480360381019061005b9190610600565b6100b3565b60405161006d91906106d1565b60405180910390f35b34801561008257600080fd5b5061009d60048036038101906100989190610600565b610213565b6040516100aa91906106d1565b60405180910390f35b6060600060028111156100c9576100c86106f3565b5b826000015160028111156100e0576100df6106f3565b5b03610122576040518060400160405280600881526020017f70726f706f736564000000000000000000000000000000000000000000000000815250905061020e565b60016002811115610136576101356106f3565b5b8260000151600281111561014d5761014c6106f3565b5b0361018f576040518060400160405280600881526020017f6163636570746564000000000000000000000000000000000000000000000000815250905061020e565b6002808111156101a2576101a16106f3565b5b826000015160028111156101b9576101b86106f3565b5b036101fb576040518060400160405280600881526020017f72656a6563746564000000000000000000000000000000000000000000000000815250905061020e565b6040518060200160405280600081525090505b919050565b60608060606040518060400160405280600781526020017f2346464646464600000000000000000000000000000000000000000000000000815250915060006002811115610264576102636106f3565b5b8460000151600281111561027b5761027a6106f3565b5b036102bd576040518060400160405280600781526020017f23323832633334000000000000000000000000000000000000000000000000008152509050610394565b600160028111156102d1576102d06106f3565b5b846000015160028111156102e8576102e76106f3565b5b0361032a576040518060400160405280600781526020017f23303038303030000000000000000000000000000000000000000000000000008152509050610393565b60028081111561033d5761033c6106f3565b5b84600001516002811115610354576103536106f3565b5b03610392576040518060400160405280600781526020017f234646303030300000000000000000000000000000000000000000000000000081525090505b5b5b600081836103a1876100b3565b876020015188604001516040516020016103bf959493929190610ffa565b6040516020818303038152906040529050809350505050919050565b6000604051905090565b600080fd5b600080fd5b600080fd5b6000601f19601f8301169050919050565b7f4e487b7100000000000000000000000000000000000000000000000000000000600052604160045260246000fd5b61043d826103f4565b810181811067ffffffffffffffff8211171561045c5761045b610405565b5b80604052505050565b600061046f6103db565b905061047b8282610434565b919050565b600080fd5b6003811061049257600080fd5b50565b6000813590506104a481610485565b92915050565b600080fd5b600080fd5b600067ffffffffffffffff8211156104cf576104ce610405565b5b6104d8826103f4565b9050602081019050919050565b82818337600083830152505050565b6000610507610502846104b4565b610465565b905082815260208101848484011115610523576105226104af565b5b61052e8482856104e5565b509392505050565b600082601f83011261054b5761054a6104aa565b5b813561055b8482602086016104f4565b91505092915050565b60006060828403121561057a576105796103ef565b5b6105846060610465565b9050600061059484828501610495565b600083015250602082013567ffffffffffffffff8111156105b8576105b7610480565b5b6105c484828501610536565b602083015250604082013567ffffffffffffffff8111156105e8576105e7610480565b5b6105f484828501610536565b60408301525092915050565b600060208284031215610616576106156103e5565b5b600082013567ffffffffffffffff811115610634576106336103ea565b5b61064084828501610564565b91505092915050565b600081519050919050565b600082825260208201905092915050565b60005b83811015610683578082015181840152602081019050610668565b83811115610692576000848401525b50505050565b60006106a382610649565b6106ad8185610654565b93506106bd818560208601610665565b6106c6816103f4565b840191505092915050565b600060208201905081810360008301526106eb8184610698565b905092915050565b7f4e487b7100000000000000000000000000000000000000000000000000000000600052602160045260246000fd5b600081905092915050565b7f3c73766720786d6c6e733d22687474703a2f2f7777772e77332e6f72672f323060008201527f30302f737667222076696577426f783d223020302033353020333530223e0000602082015250565b6000610789603e83610722565b91506107948261072d565b603e82019050919050565b7f3c7265637420783d22302220793d2230222077696474683d223335302220686560008201527f696768743d22333530222066696c6c3d22000000000000000000000000000000602082015250565b60006107fb603183610722565b91506108068261079f565b603182019050919050565b600061081c82610649565b6108268185610722565b9350610836818560208601610665565b80840191505092915050565b7f222f3e0000000000000000000000000000000000000000000000000000000000600082015250565b6000610878600383610722565b915061088382610842565b600382019050919050565b7f3c672066696c6c3d220000000000000000000000000000000000000000000000600082015250565b60006108c4600983610722565b91506108cf8261088e565b600982019050919050565b7f223e000000000000000000000000000000000000000000000000000000000000600082015250565b6000610910600283610722565b915061091b826108da565b600282019050919050565b7f3c7465787420783d2235252220793d223235252220666f6e742d73697a653d2260008201527f31352220666f6e742d7765696768743d22626f6c642220666f6e742d66616d6960208201527f6c793d22726f626f746f223e0000000000000000000000000000000000000000604082015250565b60006109a8604c83610722565b91506109b382610926565b604c82019050919050565b7f26237833413b203c2f746578743e000000000000000000000000000000000000600082015250565b60006109f4600e83610722565b91506109ff826109be565b600e82019050919050565b7f3c7465787420783d2235252220793d223433252220666f6e742d73697a653d2260008201527f33302220666f6e742d7765696768743d22626f6c642220666f6e742d66616d6960208201527f6c793d22726f626f746f223e0000000000000000000000000000000000000000604082015250565b6000610a8c604c83610722565b9150610a9782610a0a565b604c82019050919050565b7f3c2f746578743e00000000000000000000000000000000000000000000000000600082015250565b6000610ad8600783610722565b9150610ae382610aa2565b600782019050919050565b7f3c7465787420783d2235252220793d223535252220666f6e742d73697a653d2260008201527f32302220666f6e742d7765696768743d22626f6c642220666f6e742d66616d6960208201527f6c793d22726f626f746f223e202623303036303b262334353b262334353b203c60408201527f2f746578743e0000000000000000000000000000000000000000000000000000606082015250565b6000610b96606683610722565b9150610ba182610aee565b606682019050919050565b7f3c7465787420783d2235252220793d223637252220666f6e742d73697a653d2260008201527f33302220666f6e742d7765696768743d22626f6c642220666f6e742d66616d6960208201527f6c793d22726f626f746f223e0000000000000000000000000000000000000000604082015250565b6000610c2e604c83610722565b9150610c3982610bac565b604c82019050919050565b7f3c7465787420783d2236362e35252220793d223930252220666f6e742d73697a60008201527f653d22352e352220666f6e742d66616d696c793d2254696d6573204e6577205260208201527f6f6d616e2220666f6e742d7374796c653d226974616c6963223e20436f6e636560408201527f69766520596f757273656c66206f6620596f7572204f776e20436f6e7465787460608201527f2028616c706861293c2f746578743e0000000000000000000000000000000000608082015250565b6000610d12608f83610722565b9150610d1d82610c44565b608f82019050919050565b7f3c7465787420783d2236362e35252220793d223932252220666f6e742d73697a60008201527f653d22352220666f6e742d66616d696c793d2254696d6573204e657720526f6d60208201527f616e223e2032303233203c2f746578743e000000000000000000000000000000604082015250565b6000610daa605183610722565b9150610db582610d28565b605182019050919050565b7f3c7465787420783d2236362e35252220793d223934252220666f6e742d73697a60008201527f653d22352220666f6e742d66616d696c793d2254696d6573204e657720526f6d60208201527f616e223e204e6f6e2d46756e6769626c6520546f6b656e203c2f746578743e00604082015250565b6000610e42605f83610722565b9150610e4d82610dc0565b605f82019050919050565b7f3c7465787420783d2236362e35252220793d223936252220666f6e742d73697a60008201527f653d22352220666f6e742d66616d696c793d2254696d6573204e657720526f6d60208201527f616e223e203335302a333530207078203c2f746578743e000000000000000000604082015250565b6000610eda605783610722565b9150610ee582610e58565b605782019050919050565b7f3c7465787420783d2236362e35252220793d223938252220666f6e742d73697a60008201527f653d22352220666f6e742d66616d696c793d2254696d6573204e657720526f6d60208201527f616e223e204255494c44494e4720424c4f434b532061742045554b4152594f5460408201527f452c20546f6b796f2c204a6170616e203c2f746578743e000000000000000000606082015250565b6000610f98607783610722565b9150610fa382610ef0565b607782019050919050565b7f3c2f673e3c2f7376673e00000000000000000000000000000000000000000000600082015250565b6000610fe4600a83610722565b9150610fef82610fae565b600a82019050919050565b60006110058261077c565b9150611010826107ee565b915061101c8288610811565b91506110278261086b565b9150611032826108b7565b915061103e8287610811565b915061104982610903565b91506110548261099b565b91506110608286610811565b915061106b826109e7565b915061107682610a7f565b91506110828285610811565b915061108d82610acb565b915061109882610b89565b91506110a382610c21565b91506110af8284610811565b91506110ba82610acb565b91506110c582610d05565b91506110d082610d9d565b91506110db82610e35565b91506110e682610ecd565b91506110f182610f8b565b91506110fc82610fd7565b9150819050969550505050505056fea2646970667358221220c321adfda7a110e12b0babd36ff36af1e72d959242ad360b6c0c4c3fbd6ced6664736f6c634300080d0033",
  "immutableReferences": {},
  "source": "// SPDX-License-Identifier: MIT\n\npragma solidity ^0.8.0;\n\n\ncontract CYOC {\n\n    // struct for NFT\n    struct Citation {\n        Type _type; // NFT type\n        string word1; // cited \n        string word2; // citing \n    }\n    // enum for NFT type\n    enum Type {\n        Proposed,\n        Accepted,\n        Rejected\n    }\n\n    // function for generating svg images\n    function generateSVGImage(Citation memory citation) public pure returns (string memory) {\n        string memory textcolor;\n        string memory backgroundcolor;\n        textcolor = \"#FFFFFF\";\n        // set text color and background color \n        if (citation._type == Type.Proposed) {\n            //textcolor = \"#000000\";\n            backgroundcolor = \"#282c34\";\n        } else if (citation._type == Type.Accepted) {\n            //textcolor = \"#FFFFFF\";\n            backgroundcolor = \"#008000\";\n        } else if (citation._type == Type.Rejected) {\n            //textcolor = \"#FFFFFF\";\n            backgroundcolor = \"#FF0000\";\n        }\n\n        // generate svg images \n        string memory svgImage = string(\n            abi.encodePacked(\n                '<svg xmlns=\"http://www.w3.org/2000/svg\" viewBox=\"0 0 350 350\">',\n                '<rect x=\"0\" y=\"0\" width=\"350\" height=\"350\" fill=\"', backgroundcolor, '\"/>',\n                '<g fill=\"', textcolor, '\">',\n                '<text x=\"5%\" y=\"25%\" font-size=\"15\" font-weight=\"bold\" font-family=\"roboto\">', nftTypeToString(citation), '&#x3A; </text>',\n                '<text x=\"5%\" y=\"43%\" font-size=\"30\" font-weight=\"bold\" font-family=\"roboto\">', citation.word1, '</text>',\n                '<text x=\"5%\" y=\"55%\" font-size=\"20\" font-weight=\"bold\" font-family=\"roboto\"> &#0060;&#45;&#45; </text>',\n                '<text x=\"5%\" y=\"67%\" font-size=\"30\" font-weight=\"bold\" font-family=\"roboto\">', citation.word2, '</text>',\n                '<text x=\"66.5%\" y=\"90%\" font-size=\"5.5\" font-family=\"Times New Roman\" font-style=\"italic\"> Conceive Yourself of Your Own Context (alpha)</text>',\n                '<text x=\"66.5%\" y=\"92%\" font-size=\"5\" font-family=\"Times New Roman\"> 2023 </text>',\n                '<text x=\"66.5%\" y=\"94%\" font-size=\"5\" font-family=\"Times New Roman\"> Non-Fungible Token </text>',\n                '<text x=\"66.5%\" y=\"96%\" font-size=\"5\" font-family=\"Times New Roman\"> 350*350 px </text>',\n                '<text x=\"66.5%\" y=\"98%\" font-size=\"5\" font-family=\"Times New Roman\"> BUILDING BLOCKS at EUKARYOTE, Tokyo, Japan </text>',               \n                '</g>'\n                '</svg>'\n            )\n        );\n        return svgImage;\n    }\n\n    // other examples for citation sign: &#8656;\n\n    // function for changing NFT type to string \n    function nftTypeToString(Citation memory citation) public pure returns (string memory) {\n        if (citation._type == Type.Proposed) {\n            return \"proposed\";\n        } else if (citation._type == Type.Accepted) {\n            return \"accepted\";\n        } else if (citation._type == Type.Rejected) {\n            return \"rejected\";\n        } else {\n            return \"\";\n        }\n    }\n\n    // fallback function\n    receive() external payable {}\n    // self destcruct fuction\n    // only owner transfer function\n\n}",
  "sourcePath": "/Users/Kensuke/work/nftbox/contracts/cyoc.sol",
  "compiler": {
    "name": "solc",
    "version": "0.8.13+commit.abaa5c0e.Emscripten.clang"
  },
  "schemaVersion": "3.4.12",
  "updatedAt": "2023-06-05T06:46:16.252Z",
  "networkType": "ethereum",
  "devdoc": {
    "kind": "dev",
    "methods": {},
    "version": 1
  },
  "userdoc": {
    "kind": "user",
    "methods": {},
    "version": 1
  }
}